:100000000EC01DC098C01BC01AC01AC018C017C0AF
:1000100016C015C014C013C012C011C010C01124E6
:100020001FBECFE5D2E0DEBFCDBF20E0A0E6B0E04E
:1000300001C01D92AD36B207E1F746D37DC9E0CFCE
:100040001F920F920FB60F9211248F939F93AF932D
:10005000BF938091690090916A00A0916B00B0916C
:100060006C000196A11DB11D8093690090936A00F8
:10007000A0936B00B0936C00809165009091660036
:10008000A0916700B09168000196A11DB11D8093F9
:10009000650090936600A0936700B093680080911C
:1000A00060008F5F80936000BF91AF919F918F91AF
:1000B0000F900FBE0F901F901895F89480916900D3
:1000C00090916A00A0916B00B0916C0022B7789477
:1000D0006627782F892F9A2F622B08951ABC82E009
:1000E00083BF12BE89B7826089BF7894089582E089
:1000F00087BD07B400FEFDCF87B5846087BD81E66C
:1001000080BFB99A8CB580668CBDBC9A1EBC1BBCE6
:100110008FEF8DBD0895B898C098BA98C298089589
:10012000BB98C39880E886B983E287B986B18760B7
:1001300086B9369A08951F920F920FB60F92112426
:100140002F938F939F93AF93BF93B09B16C08091D3
:10015000690090916A00A0916B00B0916C0022B789
:10016000BA2FA92F982F8827822B80936100909314
:100170006200A0936300B0936400BF91AF919F9120
:100180008F912F910F900FBE0F901F90189581E0C7
:1001900085BB80E28BBF0895CF92DF92EF92FF92F2
:1001A0000F931F93E82F8A019B018430F8F40133E9
:1001B00045E714072105310508F44AC06AE070E0FC
:1001C00080E090E00A50110921093109EA3F28F442
:1001D000061717072807390710F4C901B8011F913E
:1001E0000F91FF90EF90DF90CF9008958E30A8F49C
:1001F000CB01BA01F5E09695879577956795FA95C5
:10020000D1F7013345E714072105310540F36A3082
:1002100071058105910590F2D5CF883148F1823280
:1002200088F5CB01BA01B5E09695879577956795E6
:10023000BA95D1F76801790144E0F694E794D79430
:10024000C7944A95D1F76C0D7D1D8E1D9F1DD9CF8A
:10025000C901B801A6E09695879577956795AA9507
:10026000D1F71F910F91FF90EF90DF90CF900895FD
:10027000CB01BA0154E096958795779567955A9585
:10028000D1F7BFCF8C32C8F0863308F5CB01BA0165
:1002900055E096958795779567955A95D1F76801BA
:1002A0007901F3E0F694E794D794C794FA95D1F7DF
:1002B0006C0D7D1D8E1D9F1DA4CFCB01BA01A3E047
:1002C0009695879577956795AA95D1F79ACF8034BB
:1002D000B8F4CB01BA01B4E0969587957795679508
:1002E000BA95D1F76801790143E0F694E794D79481
:1002F000C7944A95D1F76C0D7D1D8E1D9F1D81CF32
:100300008A3420F5CB01BA0154E09695879577950C
:1003100067955A95D1F768017901F3E0F694E7946F
:10032000D794C794FA95D1F76C0D7D1D8E1D9F1D36
:1003300068017901A5E0F694E794D794C794AA954B
:10034000D1F76C0D7D1D8E1D9F1D5BCF853558F43B
:10035000CB01BA0196958795779567959695879580
:10036000779567954ECF8E35C0F4CB01BA01A4E0E6
:100370009695879577956795AA95D1F76801790144
:10038000F694E794D794C794F694E794D794C794D7
:100390006C0D7D1D8E1D9F1D34CF8836C0F4CB01A2
:1003A000BA0153E096958795779567955A95D1F759
:1003B00068017901F694E794D794C794F694E7948A
:1003C000D794C7946C0D7D1D8E1D9F1D1ACF82374B
:1003D00028F5CB01BA01A3E09695879577956795A7
:1003E000AA95D1F768017901F694E794D794C79458
:1003F000F694E794D794C7946C0D7D1D8E1D9F1DB8
:100400006801790144E0F694E794D794C7944A953B
:10041000D1F76C0D7D1D8E1D9F1DF3CE8C3838F4E9
:10042000CB01BA019695879577956795EACE86397F
:10043000A0F4CB01BA0145E096958795779567952D
:100440004A95D1F768017901F694E794D794C79457
:100450006C0D7D1D8E1D9F1DD4CE803AA0F4CB0166
:10046000BA01A4E09695879577956795AA95D1F7F7
:1004700068017901F694E794D794C7946C0D7D1DBB
:100480008E1D9F1DBECE8A3A08F5CB01BA01F4E05D
:100490009695879577956795FA95D1F768017901D3
:1004A000F694E794D794C7946C0D7D1D8E1D9F1D07
:1004B00068017901A5E0F694E794D794C794AA95CA
:1004C000D1F76C0D7D1D8E1D9F1D9BCE843BA0F42E
:1004D000CB01BA0143E096958795779567954A9544
:1004E000D1F768017901F694E794D794C7946C0D1D
:1004F0007D1D8E1D9F1D85CE8E3B50F4CB01BA0114
:10050000B3E09695879577956795BA95D1F7C6CF5D
:10051000883C08F5CB01BA0153E09695879577950D
:1005200067955A95D1F768017901F694E794D794C5
:10053000C7946C0D7D1D8E1D9F1D68017901A4E07F
:10054000F694E794D794C794AA95D1F76C0D7D1DC6
:100550008E1D9F1D56CE823D70F5CB01BA01F3E092
:100560009695879577956795FA95D1F76801790102
:10057000F694E794D794C7946C0D7D1D8E1D9F1D36
:1005800068017901B4E0F694E794D794C794BA95DA
:10059000D1F76C0D7D1D8E1D9F1D6801790145E011
:1005A000F694E794D794C7944A95D1F76C0D7D1DC6
:1005B0008E1D9F1D26CE8C3DA8F4CB01BA019695C9
:1005C000879577956795969587957795679568014F
:1005D0007901F694E794D794C7946C0D7D1D8E1D18
:1005E0009F1D0FCE863E58F4CB01BA019695879594
:1005F00077956795969587957795679594CF803F82
:1006000010F5CB01BA0196958795779567959695E4
:1006100087957795679568017901F694E794D79463
:10062000C7946C0D7D1D8E1D9F1D6801790153E0DF
:10063000F694E794D794C7945A95D1F76C0D7D1D25
:100640008E1D9F1DDECD8A3F78F5CB01BA019695B0
:1006500087957795679596958795779567956801BE
:100660007901F694E794D794C7946C0D7D1D8E1D87
:100670009F1D68017901F3E0F694E794D794C7943D
:10068000FA95D1F76C0D7D1D8E1D9F1D68017901B6
:10069000A4E0F694E794D794C794AA95D1F76C0D8B
:1006A0007D1D8E1D9F1DADCD85E076956795579577
:1006B00047958A95D1F768017901C41AD50AE60AE7
:1006C000F70AC701B6019DCD1ABC82E083BF12BEF6
:1006D00089B7826089BF7894B898C098BA98C29850
:1006E0001FDD81E085BB80E28BBF01DD8FE097E2FB
:1006F0000197F1F700C00000E0E0F0E0C0E0DFE7C4
:10070000BD2E00EA16E821E030E040E45DE063E061
:1007100070E0C12CD12C7601D1E083E2A82EB09BF1
:1007200022C08091610090916200A0916300B0911D
:100730006400892B8A2B8B2BB1F0C114D104E10406
:10074000F10409F089C0F894C0906900D0906A0063
:10075000E0906B00F0906C0082B77894FE2CED2C4A
:10076000DC2CCC24C82AB29B67C0F8941092650098
:100770001092660010926700109268007894992495
:100780009394D1E0CF5FC93C38F1349B25C0349AB3
:10079000C5B1A7B8369ACB1508F094C08B2D8C1B29
:1007A000833008F48DC0C43008F0BDC0413395E7F4
:1007B00059076105710508F403C10AE010E020E063
:1007C00030E0CA3F08F4CAC08A019B010A501109EF
:1007D00021093109BC2EC0E080916000811103C065
:1007E000992009F49CCFF89480916500909166005F
:1007F000A0916700B0916800BA2FA92F982F882781
:100800007894D13009F1481759076A077B07B0F08F
:10081000CF0195958795959587959595879595950C
:1008200087959E2F9295907F8EBD9BBD1092600004
:10083000B09977CFB29999CF912CA4CF90E180E075
:10084000E1E0F0E0D0E0F0CF081719072A073B07F6
:10085000E0F1EFEFFFE0D7CF4091610050916200EF
:1008600060916300709164004C195D096E097F0905
:10087000C0906100D0906200E0906300F09064004E
:100880001092610010926200109263001092640056
:1008900093E09B15F0F0413385E75807610571053A
:1008A00008F484C00AE010E020E030E089EF8B1506
:1008B00060F58A019B010A5011092109310953CFC2
:1008C000C0E08ACF8C2F8B196BCFE1E0F0E0D2E053
:1008D0009ACF9DE09B1508F45CC08A019B0195E0CE
:1008E00036952795179507959A95D1F7413385E762
:1008F00058076105710508F436CF0A301105210546
:10090000310580F289EF8B15A0F2DB01CA010A974D
:10091000A109B10980179107A207B30708F023CFF7
:100920008C019D0120CFCE3038F58A019B0195E0E6
:1009300036952795179507959A95D1F7413395E701
:1009400059076105710508F445CF0A3011052105E5
:10095000310508F432CFCA3F08F036CFDB01CA01B7
:100960000A97A109B10980179107A207B30708F0F8
:1009700031CF8C019D012ECFC83108F046C08A01CD
:100980009B0184E036952795179507958A95D1F7B1
:10099000D5CF87E18B15F0F08A019B0184E0369575
:1009A0002795179507958A95D1F7A0CF8A019B01C6
:1009B000A6E03695279517950795AA95D1F7D3CE3A
:1009C0008A019B01A6E03695279517950795AA956C
:1009D000D1F700CF91E29B1590F18A019B0195E040
:1009E00036952795179507959A95D1F7DB01CA019A
:1009F000689413F8B695A795979587951694D1F7AF
:100A0000080F191F2A1F3B1F71CFC23228F58A0118
:100A10009B0195E036952795179507959A95D1F7FF
:100A2000DB01CA01689413F8B695A7959795879549
:100A30001694D1F7080F191F2A1F3B1F7FCF8BE297
:100A40008B15B0F08A019B0183E0369527951795A9
:100A500007958A95D1F74ACFCC3228F58A019B01B8
:100A600083E036952795179507958A95D1F766CF38
:100A700095E39B1590F18A019B0185E036952795BA
:100A8000179507958A95D1F7DB01CA01689412F88A
:100A9000B695A795979587951694D1F7080F191FC6
:100AA0002A1F3B1F23CFC63398F58A019B0185E09F
:100AB00036952795179507958A95D1F7DB01CA01D9
:100AC000689412F8B695A795979587951694D1F7DF
:100AD000080F191F2A1F3B1F31CF8FE38B1598F189
:100AE0008A019B0184E036952795179507958A958D
:100AF000D1F7DB01CA01689412F8B695A7959795CE
:100B000087951694D1F7080F191F2A1F3B1FEECEA9
:100B1000C03408F042C08A019B0184E036952795D5
:100B2000179507958A95D1F7DB01CA01689412F8E9
:100B3000B695A795979587951694D1F7080F191F25
:100B40002A1F3B1FFBCE99E49B1508F44EC08A0177
:100B50009B0194E036952795179507959A95D1F7BF
:100B6000DB01CA01689412F8B695A7959795879509
:100B70001694D1F7080F191F2A1F3B1FDB01CA016A
:100B8000689414F8B695A795979587951694D1F71C
:100B9000080F191F2A1F3B1FA9CECA34A0F58A01CE
:100BA0009B0194E036952795179507959A95D1F76F
:100BB000DB01CA01689412F8B695A79597958795B9
:100BC0001694D1F7080F191F2A1F3B1FDB01CA011A
:100BD000689414F8B695A795979587951694D1F7CC
:100BE000080F191F2A1F3B1FA9CE84E58B15C0F0E3
:100BF0008A019B0136952795179507953695279578
:100C00001795079573CEC53530F58A019B0136954A
:100C100027951795079536952795179507958ECEA5
:100C20009DE59B1590F18A019B0184E036952795FF
:100C3000179507958A95D1F7DB01CA01B695A79557
:100C400097958795B695A79597958795080F191F3E
:100C50002A1F3B1F4BCECE3598F58A019B0184E0BD
:100C600036952795179507958A95D1F7DB01CA0127
:100C7000B695A79597958795B695A79597958795D6
:100C8000080F191F2A1F3B1F59CE87E68B1598F1B5
:100C90008A019B0183E036952795179507958A95DC
:100CA000D1F7DB01CA01B695A79597958795B695BB
:100CB000A79597958795080F191F2A1F3B1F16CEDA
:100CC000C83608F042C08A019B0183E0369527951B
:100CD000179507958A95D1F7DB01CA01B695A795B7
:100CE00097958795B695A79597958795080F191F9E
:100CF0002A1F3B1F23CE91E79B1508F44EC08A01A3
:100D00009B0193E036952795179507959A95D1F70E
:100D1000DB01CA01B695A79597958795B695A795D6
:100D200097958795080F191F2A1F3B1FDB01CA01E2
:100D3000689413F8B695A795979587951694D1F76B
:100D4000080F191F2A1F3B1FD1CDC23780F58A011A
:100D50009B0193E036952795179507959A95D1F7BE
:100D6000DB01CA01B695A79597958795B695A79586
:100D700097958795080F191F2A1F3B1FDB01CA0192
:100D8000689413F8B695A795979587951694D1F71B
:100D9000080F191F2A1F3B1FD1CD8BE88B1580F040
:100DA0008A019B0136952795179507959FCDCC38DD
:100DB000F0F48A019B013695279517950795BECDCE
:100DC00095E99B1550F18A019B0185E036952795A1
:100DD000179507958A95D1F7DB01CA01B695A795B6
:100DE00097958795080F191F2A1F3B1F7FCDC6397E
:100DF00058F58A019B0185E036952795179507954B
:100E00008A95D1F7DB01CA01B695A7959795879585
:100E1000080F191F2A1F3B1F91CD8FE98B1550F129
:100E20008A019B0194E036952795179507959A9529
:100E3000D1F7DB01CA01B695A79597958795080F5D
:100E4000191F2A1F3B1F52CDC03AD0F58A019B01C2
:100E500094E036952795179507959A95D1F7DB017C
:100E6000CA01B695A79597958795080F191F2A1F50
:100E70003B1F64CD99EA9B1508F446C08A019B018B
:100E800084E036952795179507958A95D1F7DB016C
:100E9000CA01B695A79597958795080F191F2A1F20
:100EA0003B1FDB01CA01689414F8B695A795979586
:100EB00087951694D1F7080F191F2A1F3B1F16CDCF
:100EC000CA3AC8F58A019B0184E0369527951795A3
:100ED00007958A95D1F7DB01CA01B695A795979535
:100EE0008795080F191F2A1F3B1FDB01CA01689451
:100EF00014F8B695A795979587951694D1F7080F8E
:100F0000191F2A1F3B1F1ACD83EB8B1550F18A0145
:100F10009B0193E036952795179507959A95D1F7FC
:100F2000DB01CA01B695A79597958795080F191FFC
:100F30002A1F3B1FDBCCC43B08F58A019B0193E0D1
:100F400036952795179507959A95D1F7DB01CA0134
:100F5000B695A79597958795080F191F2A1F3B1FD0
:100F6000EDCC9DEB9B15B0F08A019B0183E036959B
:100F70002795179507958A95D1F789CFCE3B80F5B0
:100F80008A019B0183E036952795179507958A95E9
:100F9000D1F7A1CF87EC8B1508F447C08A019B01DC
:100FA00083E036952795179507958A95D1F7DB014C
:100FB000CA01B695A79597958795080F191F2A1FFF
:100FC0003B1FDB01CA01689413F8B695A795979566
:100FD00087951694D1F7080F191F2A1F3B1F86CC3F
:100FE000C83C08F056C08A019B0183E036952795DE
:100FF000179507958A95D1F7DB01CA01B695A79594
:1010000097958795080F191F2A1F3B1FDB01CA01FF
:10101000689413F8B695A795979587951694D1F788
:10102000080F191F2A1F3B1F89CC91ED9B1508F44F
:1010300063C08A019B0183E0369527951795079534
:101040008A95D1F7DB01CA01B695A7959795879543
:10105000080F191F2A1F3B1FDB01CA01689413F8F0
:10106000B695A795979587951694D1F7080F191FF0
:101070002A1F3B1FDB01CA01689414F8B695A79597
:10108000979587951694D1F7080F191F2A1F3B1FB4
:101090002DCCC23D08F048C08A019B0183E0369503
:1010A0002795179507958A95D1F7DB01CA01B69563
:1010B000A79597958795080F191F2A1F3B1FDB01DE
:1010C000CA01689413F8B695A795979587951694D5
:1010D000D1F7080F191F2A1F3B1FDB01CA016894B3
:1010E00014F8B695A795979587951694D1F7080F9C
:1010F000191F2A1F3B1F22CC8BED8B1560F18A0133
:101100009B01369527951795079536952795179541
:101110000795DB01CA01B695A79597958795080FA6
:10112000191F2A1F3B1FE2CBCC3D18F58A019B01FA
:101130003695279517950795369527951795079511
:10114000DB01CA01B695A79597958795080F191FDA
:101150002A1F3B1FF3CB95EE9B15C0F08A019B0124
:1011600036952795179507953695279517950795E1
:101170001ECFC63E90F58A019B013695279517959F
:101180000795369527951795079536CF8FEE8B15D2
:1011900008F449C08A019B01369527951795079554
:1011A0003695279517950795DB01CA01B695A79542
:1011B00097958795080F191F2A1F3B1FDB01CA014E
:1011C000689412F8B695A795979587951694D1F7D8
:1011D000080F191F2A1F3B1F89CBC03F08F058C0BA
:1011E0008A019B0136952795179507953695279582
:1011F00017950795DB01CA01B695A7959795879531
:10120000080F191F2A1F3B1FDB01CA01689412F83F
:10121000B695A795979587951694D1F7080F191F3E
:101220002A1F3B1F8BCB99EF9B1508F465C08A01E1
:101230009B01369527951795079536952795179510
:101240000795DB01CA01B695A79597958795080F75
:10125000191F2A1F3B1FDB01CA01689412F8B695BB
:10126000A795979587951694D1F7080F191F2A1FF0
:101270003B1FDB01CA01689413F8B695A7959795B3
:1012800087951694D1F7080F191F2A1F3B1F2ECBE5
:10129000CA3F08F041C08A019B01369527951795F2
:1012A00007953695279517950795DB01CA01B695E1
:1012B000A79597958795080F191F2A1F3B1FDB01DC
:1012C000CA01689412F8B695A795979587951694D4
:1012D000D1F7080F191F2A1F3B1FDB01CA016894B1
:1012E00013F8B695A795979587951694D1F7080F9B
:1012F000191F2A1F3B1F22CBDB01CA0115E0B6953F
:10130000A795979587951A95D1F78A019B01081B98
:10131000190B2A0B3B0BEACADB01CA0125E0B69583
:10132000A795979587952A95D1F78A019B01081B68
:0C133000190B2A0B3B0B02CBF894FFCFEB
:00000001FF
