:100000000EC01DC098C01BC01AC01AC018C017C0AF
:1000100016C015C014C013C012C011C010C01124E6
:100020001FBECFE5D2E0DEBFCDBF20E0A0E6B0E04E
:1000300001C01D92AD36B207E1F746D374CAE0CFD6
:100040001F920F920FB60F9211248F939F93AF932D
:10005000BF938091690090916A00A0916B00B0916C
:100060006C000196A11DB11D8093690090936A00F8
:10007000A0936B00B0936C00809165009091660036
:10008000A0916700B09168000196A11DB11D8093F9
:10009000650090936600A0936700B093680080911C
:1000A00060008F5F80936000BF91AF919F918F91AF
:1000B0000F900FBE0F901F901895F89480916900D3
:1000C00090916A00A0916B00B0916C0022B7789477
:1000D0006627782F892F9A2F622B08951ABC82E009
:1000E00083BF12BE89B7826089BF7894089582E089
:1000F00087BD07B400FEFDCF87B5846087BD81E66C
:1001000080BFB99A8CB580668CBDBC9A1EBC1BBCE6
:100110008FEF8DBD0895B898C098BA98C298089589
:10012000BB98C39880E886B983E287B986B18760B7
:1001300086B9369A08951F920F920FB60F92112426
:100140002F938F939F93AF93BF93B09B16C08091D3
:10015000690090916A00A0916B00B0916C0022B789
:10016000BA2FA92F982F8827822B80936100909314
:100170006200A0936300B0936400BF91AF919F9120
:100180008F912F910F900FBE0F901F90189581E0C7
:1001900085BB80E28BBF0895CF92DF92EF92FF92F2
:1001A0000F931F93E82F8A019B018430F8F40133E9
:1001B00045E714072105310508F44AC06AE070E0FC
:1001C00080E090E00A50110921093109EA3F28F442
:1001D000061717072807390710F4C901B8011F913E
:1001E0000F91FF90EF90DF90CF9008958E30A8F49C
:1001F000CB01BA01F5E09695879577956795FA95C5
:10020000D1F7013345E714072105310540F36A3082
:1002100071058105910590F2D5CF883148F1823280
:1002200088F5CB01BA01B5E09695879577956795E6
:10023000BA95D1F76801790144E0F694E794D79430
:10024000C7944A95D1F76C0D7D1D8E1D9F1DD9CF8A
:10025000C901B801A6E09695879577956795AA9507
:10026000D1F71F910F91FF90EF90DF90CF900895FD
:10027000CB01BA0154E096958795779567955A9585
:10028000D1F7BFCF8C32C8F0863308F5CB01BA0165
:1002900055E096958795779567955A95D1F76801BA
:1002A0007901F3E0F694E794D794C794FA95D1F7DF
:1002B0006C0D7D1D8E1D9F1DA4CFCB01BA01A3E047
:1002C0009695879577956795AA95D1F79ACF8034BB
:1002D000B8F4CB01BA01B4E0969587957795679508
:1002E000BA95D1F76801790143E0F694E794D79481
:1002F000C7944A95D1F76C0D7D1D8E1D9F1D81CF32
:100300008A3420F5CB01BA0154E09695879577950C
:1003100067955A95D1F768017901F3E0F694E7946F
:10032000D794C794FA95D1F76C0D7D1D8E1D9F1D36
:1003300068017901A5E0F694E794D794C794AA954B
:10034000D1F76C0D7D1D8E1D9F1D5BCF853558F43B
:10035000CB01BA0196958795779567959695879580
:10036000779567954ECF8E35C0F4CB01BA01A4E0E6
:100370009695879577956795AA95D1F76801790144
:10038000F694E794D794C794F694E794D794C794D7
:100390006C0D7D1D8E1D9F1D34CF8836C0F4CB01A2
:1003A000BA0153E096958795779567955A95D1F759
:1003B00068017901F694E794D794C794F694E7948A
:1003C000D794C7946C0D7D1D8E1D9F1D1ACF82374B
:1003D00028F5CB01BA01A3E09695879577956795A7
:1003E000AA95D1F768017901F694E794D794C79458
:1003F000F694E794D794C7946C0D7D1D8E1D9F1DB8
:100400006801790144E0F694E794D794C7944A953B
:10041000D1F76C0D7D1D8E1D9F1DF3CE8C3838F4E9
:10042000CB01BA019695879577956795EACE86397F
:10043000A0F4CB01BA0145E096958795779567952D
:100440004A95D1F768017901F694E794D794C79457
:100450006C0D7D1D8E1D9F1DD4CE803AA0F4CB0166
:10046000BA01A4E09695879577956795AA95D1F7F7
:1004700068017901F694E794D794C7946C0D7D1DBB
:100480008E1D9F1DBECE8A3A08F5CB01BA01F4E05D
:100490009695879577956795FA95D1F768017901D3
:1004A000F694E794D794C7946C0D7D1D8E1D9F1D07
:1004B00068017901A5E0F694E794D794C794AA95CA
:1004C000D1F76C0D7D1D8E1D9F1D9BCE843BA0F42E
:1004D000CB01BA0143E096958795779567954A9544
:1004E000D1F768017901F694E794D794C7946C0D1D
:1004F0007D1D8E1D9F1D85CE8E3B50F4CB01BA0114
:10050000B3E09695879577956795BA95D1F7C6CF5D
:10051000883C08F5CB01BA0153E09695879577950D
:1005200067955A95D1F768017901F694E794D794C5
:10053000C7946C0D7D1D8E1D9F1D68017901A4E07F
:10054000F694E794D794C794AA95D1F76C0D7D1DC6
:100550008E1D9F1D56CE823D70F5CB01BA01F3E092
:100560009695879577956795FA95D1F76801790102
:10057000F694E794D794C7946C0D7D1D8E1D9F1D36
:1005800068017901B4E0F694E794D794C794BA95DA
:10059000D1F76C0D7D1D8E1D9F1D6801790145E011
:1005A000F694E794D794C7944A95D1F76C0D7D1DC6
:1005B0008E1D9F1D26CE8C3DA8F4CB01BA019695C9
:1005C000879577956795969587957795679568014F
:1005D0007901F694E794D794C7946C0D7D1D8E1D18
:1005E0009F1D0FCE863E58F4CB01BA019695879594
:1005F00077956795969587957795679594CF803F82
:1006000010F5CB01BA0196958795779567959695E4
:1006100087957795679568017901F694E794D79463
:10062000C7946C0D7D1D8E1D9F1D6801790153E0DF
:10063000F694E794D794C7945A95D1F76C0D7D1D25
:100640008E1D9F1DDECD8A3F78F5CB01BA019695B0
:1006500087957795679596958795779567956801BE
:100660007901F694E794D794C7946C0D7D1D8E1D87
:100670009F1D68017901F3E0F694E794D794C7943D
:10068000FA95D1F76C0D7D1D8E1D9F1D68017901B6
:10069000A4E0F694E794D794C794AA95D1F76C0D8B
:1006A0007D1D8E1D9F1DADCD85E076956795579577
:1006B00047958A95D1F768017901C41AD50AE60AE7
:1006C000F70AC701B6019DCDCF93DF9300D000D0CC
:1006D000CDB7DEB71ABC82E083BF12BE89B7826095
:1006E00089BF7894B898C098BA98C29819DD81E00B
:1006F00085BB80E28BBFFBDC40E45DE063E070E043
:100700008FE74ADDAFE0B7E21197F1F700C00000D4
:10071000212C312C512C4FE7B42E50E4652E5DE096
:10072000752E53E0852E912C69827A828B829C8271
:10073000C12CD12C7601F0E0E3E2AE2EB09B22C0BA
:10074000009161001091620020916300309164007B
:10075000012B022B032BB1F0C114D104E104F104ED
:1007600009F099C0F894C0906900D0906A00E090B8
:100770006B00F0906C0022B77894FE2CED2CDC2CF2
:10078000CC24C22AB29B73C0F894109265001092D8
:1007900066001092670010926800789421E0F1E002
:1007A0005394E8EC8E2E851468F5349B2BC0349A54
:1007B00045B1A7B8369A4B1508F0AEC03B2D341B97
:1007C000333008F4A7C0443008F0E2C089819A8130
:1007D000AB81BC818133E5E79E07A105B10508F433
:1007E00034C16AE070E080E090E04A3F08F4F2C073
:1007F00069817A818B819C816A5071098109910993
:10080000B42E512C30916000311103C0222309F421
:1008100095CFF894009165001091660020916700D3
:1008200030916800322F212F102F00277894F1305B
:1008300039F169807A808B809C806016710682060F
:100840009306B8F0910135952795359527953595FF
:10085000279535952795322F222D2295207F3EBD55
:100860002BBD10926000B0996BCFB2998DCF20E074
:1008700097CF20E130E022242394312CF0E0EFCF19
:10088000601771078207930708F449C022242A944D
:10089000BFE03B2ECECF20916100309162004091AD
:1008A0006300509164002C193D094E095F092983AA
:1008B0003A834B835C83C0906100D0906200E090EB
:1008C0006300F09064001092610010926200109238
:1008D00063001092640033E03B1530F189819A8106
:1008E000AB81BC818133E5E79E07A105B10508F422
:1008F000A2C06AE070E080E090E0A9EF7A2E7B145D
:10090000B0F569817A818B819C816A507109810976
:10091000910938CF512C76CF342F3B1951CF222457
:100920002394312CF2E085CF1DE0612E6B1408F486
:1009300072C069817A818B819C81B5E0969587959B
:1009400077956795BA95D1F729813A814B815C817A
:10095000213335474105510508F414CF6A3071053C
:100960008105910530F2A9EF7A2E7B1450F20981AE
:100970001A812B813C810A5011092109310906177E
:1009800017072807390708F0FDCEC901B801FACECC
:100990004E3090F569817A818B819C8135E0969506
:1009A0008795779567953A95D1F769807A808B809E
:1009B0009C8031E3631635E773068104910408F4E3
:1009C0001FCF6A3071058105910508F40ACF4A3FAF
:1009D00008F00ECF49805A806B807C803AE0431A41
:1009E000510861087108461657066806790608F02E
:1009F00007CFC301B20104CF483108F04FC069816D
:100A00007A818B819C8104E096958795779567958F
:100A10000A95D1F7CACFA7E17A2E7B1400F169813C
:100A20007A818B819C81E4E096958795779567958F
:100A3000EA95D1F789CFBC01CD0106E0969587955F
:100A4000779567950A95D1F79DCEBC01CD0156E00B
:100A500096958795779567955A95D1F7D1CE51E2BE
:100A6000852E8B14C0F169817A818B819C8115E080
:100A700096958795779567951A95D1F709811A818B
:100A80002B813C8144E036952795179507954A952B
:100A9000D1F7600F711F821F931F56CF423258F556
:100AA00069817A818B819C81B5E096958795779550
:100AB0006795BA95D1F749805A806B807C8014E0A5
:100AC00076946794579447941A95D1F7640D751DE1
:100AD000861D971D6ACFBBE29B2E9B14D0F06981C7
:100AE0007A818B819C81A3E0969587957795679510
:100AF000AA95D1F729CF4C3250F569817A818B8143
:100B00009C81A3E09695879577956795AA95D1F7EF
:100B10004CCF25E32B15C0F169817A818B819C81B3
:100B200055E096958795779567955A95D1F7098100
:100B30001A812B813C81E3E036952795179507951F
:100B4000EA95D1F7600F711F821F931FFDCE4633C8
:100B5000C8F569817A818B819C8155E0969587954E
:100B6000779567955A95D1F769807A808B809C80BC
:100B7000E3E09694879477946794EA95D1F7660DAD
:100B8000771D881D991D11CF3FE33B15C8F1698181
:100B90007A818B819C8114E09695879577956795EE
:100BA0001A95D1F709811A812B813C8143E0369552
:100BB0002795179507954A95D1F7600F711F821FEA
:100BC000931FC2CE403408F049C069817A818B817D
:100BD0009C8104E096958795779567950A95D1F75E
:100BE00069807A808B809C8033E096948794779498
:100BF00067943A95D1F7660D771D881D991DD5CE5E
:100C000049E44B1508F456C069817A818B819C8137
:100C1000E4E09695879577956795EA95D1F70981F0
:100C20001A812B813C81A3E036952795179507956E
:100C3000AA95D1F7600F711F821F931F09811A8136
:100C40002B813C81B5E03695279517950795BA9588
:100C5000D1F7600F711F821F931F76CE4A34D0F5F3
:100C600069817A818B819C81A4E09695879577959F
:100C70006795AA95D1F769807A808B809C80B3E0D4
:100C80009694879477946794BA95D1F7660D771DFB
:100C9000881D991D69807A808B809C8015E09694D0
:100CA0008794779467941A95D1F7660D771D881D00
:100CB000991D7BCE54E55B15E0F069817A818B81CB
:100CC0009C81969587957795679596958795779565
:100CD00067953ACE453560F569817A818B819C8133
:100CE0009695879577956795969587957795679566
:100CF0005CCE8DE58B15D0F169817A818B819C81E9
:100D0000B4E09695879577956795BA95D1F709815F
:100D10001A812B813C813695279517950795369535
:100D2000279517950795600F711F821F931F0CCE93
:100D30004E35D8F569817A818B819C8134E0969516
:100D40008795779567953A95D1F769807A808B80FA
:100D50009C809694879477946794969487947794DC
:100D60006794660D771D881D991D1FCE97E69B150C
:100D7000D8F169817A818B819C81E3E09695879592
:100D800077956795EA95D1F709811A812B813C8186
:100D900036952795179507953695279517950795B5
:100DA000600F711F821F931FCFCD483608F04BC0D4
:100DB00069817A818B819C8113E0969587957795DF
:100DC00067951A95D1F769807A808B809C8096947C
:100DD0008794779467949694879477946794660D34
:100DE000771D881D991DE1CDA1E7AB1508F458C00A
:100DF00069817A818B819C8113E09695879577959F
:100E000067951A95D1F709811A812B813C81369516
:100E10002795179507953695279517950795600F90
:100E2000711F821F931F09811A812B813C8154E01D
:100E300036952795179507955A95D1F7600F711F2D
:100E4000821F931F81CD4237B8F569817A818B81EA
:100E50009C81E3E09695879577956795EA95D1F71C
:100E600069807A808B809C8096948794779467942D
:100E70009694879477946794660D771D881D991DC5
:100E800069807A808B809C80B4E096948794779474
:100E90006794BA95D1F7660D771D881D991D85CD8C
:100EA000BBE8BB15A0F069817A818B819C81969506
:100EB00087957795679548CD4C3820F569817A817B
:100EC0008B819C8196958795779567956ECDE5E9A1
:100ED000EB1590F169817A818B819C81E5E0969593
:100EE000879577956795EA95D1F709811A812B81C6
:100EF0003C813695279517950795600F711F821FC6
:100F0000931F22CD4639A0F569817A818B819C811E
:100F100005E096958795779567950A95D1F769804D
:100F20007A808B809C809694879477946794660DE2
:100F3000771D881D991D39CD5FE9652E6B1498F1D9
:100F400069817A818B819C81B4E0969587957795AC
:100F50006795BA95D1F709811A812B813C81369525
:100F6000279517950795600F711F821F931FECCC73
:100F7000403A08F044C069817A818B819C81B4E059
:100F80009695879577956795BA95D1F769807A8018
:100F90008B809C809694879477946794660D771DD8
:100FA000881D991D02CDA9EA7A2E7B1408F451C040
:100FB00069817A818B819C81E4E09695879577950C
:100FC0006795EA95D1F709811A812B813C81369585
:100FD000279517950795600F711F821F931F098131
:100FE0001A812B813C8155E03695279517950795F9
:100FF0005A95D1F7600F711F821F931FA5CC4A3AF3
:1010000008F043C069817A818B819C81A4E0969528
:10101000879577956795AA95D1F769807A808B80B7
:101020009C809694879477946794660D771D881DAD
:10103000991D69807A808B809C8005E096948794C6
:10104000779467940A95D1F7660D771D881D991DD1
:10105000ACCC53EB852E8B1490F169817A818B8116
:101060009C81B3E09695879577956795BA95D1F76A
:1010700009811A812B813C81369527951795079513
:10108000600F711F821F931F5FCC443B40F5698145
:101090007A818B819C8153E09695879577956795AA
:1010A0005A95D1F769807A808B809C80969487943A
:1010B00077946794660D771D881D991D76CCADEBEE
:1010C0009A2E9B14D0F069817A818B819C81E3E018
:1010D0009695879577956795EA95D1F774CF4E3BAE
:1010E000B8F569817A818B819C8133E096958795EB
:1010F000779567953A95D1F790CF27EC2B1508F4A3
:1011000051C069817A818B819C8113E09695879586
:10111000779567951A95D1F709811A812B813C81C2
:101120003695279517950795600F711F821F931F9E
:1011300009811A812B813C81E4E03695279517952A
:101140000795EA95D1F7600F711F821F931FFCCBA3
:10115000483C08F061C069817A818B819C81B3E051
:101160009695879577956795BA95D1F769807A8036
:101170008B809C809694879477946794660D771DF6
:10118000881D991D69807A808B809C80A4E096944C
:10119000879477946794AA95D1F7660D771D881D7B
:1011A000991D03CC31ED3B1508F46FC069817A813C
:1011B0008B819C8153E096958795779567955A9595
:1011C000D1F709811A812B813C8136952795179596
:1011D0000795600F711F821F931F09811A812B8150
:1011E0003C81A4E03695279517950795AA95D1F7E8
:1011F000600F711F821F931F09811A812B813C810F
:10120000B5E03695279517950795BA95D1F7600FF4
:10121000711F821F931F98CB423D08F052C0698115
:101220007A818B819C8133E0969587957795679538
:101230003A95D1F769807A808B809C8096948794C8
:1012400077946794660D771D881D991D69807A8053
:101250008B809C80E4E09694879477946794EA95D9
:10126000D1F7660D771D881D991D69807A808B8066
:101270009C80A5E09694879477946794AA95D1F77B
:10128000660D771D881D991D90CB4BED4B15A0F178
:1012900069817A818B819C819695879577956795F1
:1012A000969587957795679509811A812B813C8161
:1012B0003695279517950795600F711F821F931F0D
:1012C00043CB4C3D48F569817A818B819C81969511
:1012D00087957795679596958795779567956980B2
:1012E0007A808B809C809694879477946794660D1F
:1012F000771D881D991D59CB55EE5B15E0F069816E
:101300007A818B819C81969587957795679596953F
:1013100087957795679500CF463EC8F569817A81B4
:101320008B819C81969587957795679596958795FE
:10133000779567951BCF8FEE8B1508F453C06981A5
:101340007A818B819C8196958795779567959695FF
:1013500087957795679509811A812B813C81369510
:10136000279517950795600F711F821F931F09819D
:101370001A812B813C8143E0369527951795079577
:101380004A95D1F7600F711F821F931FDDCA403F3E
:1013900008F063C069817A818B819C8196958795DD
:1013A00077956795969587957795679569807A8003
:1013B0008B809C809694879477946794660D771DB4
:1013C000881D991D69807A808B809C8053E096945B
:1013D0008794779467945A95D1F7660D771D881D89
:1013E000991DE3CA99EF9B1508F471C069817A8150
:1013F0008B819C819695879577956795969587952E
:101400007795679509811A812B813C8136952795BF
:1014100017950795600F711F821F931F09811A810D
:101420002B813C8153E036952795179507955A9562
:10143000D1F7600F711F821F931F09811A812B81C1
:101440003C81E4E03695279517950795EA95D1F705
:10145000600F711F821F931F77CA4A3F08F04DC06B
:1014600069817A818B819C8196958795779567951F
:10147000969587957795679569807A808B809C8013
:101480009694879477946794660D771D881D991DAF
:1014900069807A808B809C80B3E09694879477945F
:1014A0006794BA95D1F7660D771D881D991D6980DF
:1014B0007A808B809C8014E09694879477946794CC
:1014C0001A95D1F7660D771D881D991D6ECA898101
:1014D0009A81AB81BC8115E0B695A79597958795C4
:1014E0001A95D1F769807A808B809C80681A790A76
:1014F0008A0A9B0AC401B30127CA89819A81AB81F8
:10150000BC8165E0B695A795979587956A95D1F7C3
:1015100069807A808B809C80681A790A8A0A9B0A83
:0A152000C401B30142CAF894FFCFE2
:00000001FF
