:100000000EC01DC098C01BC01AC01AC018C017C0AF
:1000100016C015C014C013C012C011C010C01124E6
:100020001FBECFE5D2E0DEBFCDBF20E0A0E6B0E04E
:1000300001C01D92AD36B207E1F746D391C9E0CFBA
:100040001F920F920FB60F9211248F939F93AF932D
:10005000BF938091690090916A00A0916B00B0916C
:100060006C000196A11DB11D8093690090936A00F8
:10007000A0936B00B0936C00809165009091660036
:10008000A0916700B09168000196A11DB11D8093F9
:10009000650090936600A0936700B093680080911C
:1000A00060008F5F80936000BF91AF919F918F91AF
:1000B0000F900FBE0F901F901895F89480916900D3
:1000C00090916A00A0916B00B0916C0022B7789477
:1000D0006627782F892F9A2F622B08951ABC82E009
:1000E00083BF12BE89B7826089BF7894089582E089
:1000F00087BD07B400FEFDCF87B5846087BD81E66C
:1001000080BFB99A8CB580668CBDBC9A1EBC1BBCE6
:100110008FEF8DBD0895B898C098BA98C298089589
:10012000BB98C39880E886B983E287B986B18760B7
:1001300086B9369A08951F920F920FB60F92112426
:100140002F938F939F93AF93BF93B09B16C08091D3
:10015000690090916A00A0916B00B0916C0022B789
:10016000BA2FA92F982F8827822B80936100909314
:100170006200A0936300B0936400BF91AF919F9120
:100180008F912F910F900FBE0F901F90189581E0C7
:1001900085BB80E28BBF0895CF92DF92EF92FF92F2
:1001A0000F931F93E82F8A019B018430F8F40133E9
:1001B00045E714072105310508F44AC06AE070E0FC
:1001C00080E090E00A50110921093109EA3F28F442
:1001D000061717072807390710F4C901B8011F913E
:1001E0000F91FF90EF90DF90CF9008958E30A8F49C
:1001F000CB01BA01F5E09695879577956795FA95C5
:10020000D1F7013345E714072105310540F36A3082
:1002100071058105910590F2D5CF883148F1823280
:1002200088F5CB01BA01B5E09695879577956795E6
:10023000BA95D1F76801790144E0F694E794D79430
:10024000C7944A95D1F76C0D7D1D8E1D9F1DD9CF8A
:10025000C901B801A6E09695879577956795AA9507
:10026000D1F71F910F91FF90EF90DF90CF900895FD
:10027000CB01BA0154E096958795779567955A9585
:10028000D1F7BFCF8C32C8F0863308F5CB01BA0165
:1002900055E096958795779567955A95D1F76801BA
:1002A0007901F3E0F694E794D794C794FA95D1F7DF
:1002B0006C0D7D1D8E1D9F1DA4CFCB01BA01A3E047
:1002C0009695879577956795AA95D1F79ACF8034BB
:1002D000B8F4CB01BA01B4E0969587957795679508
:1002E000BA95D1F76801790143E0F694E794D79481
:1002F000C7944A95D1F76C0D7D1D8E1D9F1D81CF32
:100300008A3420F5CB01BA0154E09695879577950C
:1003100067955A95D1F768017901F3E0F694E7946F
:10032000D794C794FA95D1F76C0D7D1D8E1D9F1D36
:1003300068017901A5E0F694E794D794C794AA954B
:10034000D1F76C0D7D1D8E1D9F1D5BCF853558F43B
:10035000CB01BA0196958795779567959695879580
:10036000779567954ECF8E35C0F4CB01BA01A4E0E6
:100370009695879577956795AA95D1F76801790144
:10038000F694E794D794C794F694E794D794C794D7
:100390006C0D7D1D8E1D9F1D34CF8836C0F4CB01A2
:1003A000BA0153E096958795779567955A95D1F759
:1003B00068017901F694E794D794C794F694E7948A
:1003C000D794C7946C0D7D1D8E1D9F1D1ACF82374B
:1003D00028F5CB01BA01A3E09695879577956795A7
:1003E000AA95D1F768017901F694E794D794C79458
:1003F000F694E794D794C7946C0D7D1D8E1D9F1DB8
:100400006801790144E0F694E794D794C7944A953B
:10041000D1F76C0D7D1D8E1D9F1DF3CE8C3838F4E9
:10042000CB01BA019695879577956795EACE86397F
:10043000A0F4CB01BA0145E096958795779567952D
:100440004A95D1F768017901F694E794D794C79457
:100450006C0D7D1D8E1D9F1DD4CE803AA0F4CB0166
:10046000BA01A4E09695879577956795AA95D1F7F7
:1004700068017901F694E794D794C7946C0D7D1DBB
:100480008E1D9F1DBECE8A3A08F5CB01BA01F4E05D
:100490009695879577956795FA95D1F768017901D3
:1004A000F694E794D794C7946C0D7D1D8E1D9F1D07
:1004B00068017901A5E0F694E794D794C794AA95CA
:1004C000D1F76C0D7D1D8E1D9F1D9BCE843BA0F42E
:1004D000CB01BA0143E096958795779567954A9544
:1004E000D1F768017901F694E794D794C7946C0D1D
:1004F0007D1D8E1D9F1D85CE8E3B50F4CB01BA0114
:10050000B3E09695879577956795BA95D1F7C6CF5D
:10051000883C08F5CB01BA0153E09695879577950D
:1005200067955A95D1F768017901F694E794D794C5
:10053000C7946C0D7D1D8E1D9F1D68017901A4E07F
:10054000F694E794D794C794AA95D1F76C0D7D1DC6
:100550008E1D9F1D56CE823D70F5CB01BA01F3E092
:100560009695879577956795FA95D1F76801790102
:10057000F694E794D794C7946C0D7D1D8E1D9F1D36
:1005800068017901B4E0F694E794D794C794BA95DA
:10059000D1F76C0D7D1D8E1D9F1D6801790145E011
:1005A000F694E794D794C7944A95D1F76C0D7D1DC6
:1005B0008E1D9F1D26CE8C3DA8F4CB01BA019695C9
:1005C000879577956795969587957795679568014F
:1005D0007901F694E794D794C7946C0D7D1D8E1D18
:1005E0009F1D0FCE863E58F4CB01BA019695879594
:1005F00077956795969587957795679594CF803F82
:1006000010F5CB01BA0196958795779567959695E4
:1006100087957795679568017901F694E794D79463
:10062000C7946C0D7D1D8E1D9F1D6801790153E0DF
:10063000F694E794D794C7945A95D1F76C0D7D1D25
:100640008E1D9F1DDECD8A3F78F5CB01BA019695B0
:1006500087957795679596958795779567956801BE
:100660007901F694E794D794C7946C0D7D1D8E1D87
:100670009F1D68017901F3E0F694E794D794C7943D
:10068000FA95D1F76C0D7D1D8E1D9F1D68017901B6
:10069000A4E0F694E794D794C794AA95D1F76C0D8B
:1006A0007D1D8E1D9F1DADCD85E076956795579577
:1006B00047958A95D1F768017901C41AD50AE60AE7
:1006C000F70AC701B6019DCD1ABC82E083BF12BEF6
:1006D00089B7826089BF7894B898C098BA98C29850
:1006E0001FDD81E085BB80E28BBF01DD8FE097E2FB
:1006F0000197F1F700C00000E0E0F0E0C0E02FE774
:10070000A22ED0E000E010E0980140E050E0BA01F5
:10071000C12CD12C7601BB24B394A3E29A2EB09BBA
:1007200022C08091610090916200A0916300B0911D
:100730006400892B8A2B8B2BB1F0C114D104E10406
:10074000F10409F093C0F894C0906900D0906A0059
:10075000E0906B00F0906C0082B77894FE2CED2C4A
:10076000DC2CCC24C82AB29B6DC0D11174C0F89483
:100770001092650010926600109267001092680057
:100780007894D1E088248394BB24B394CF5FC93C90
:1007900038F1349B25C0349AC5B197B8369ACA153A
:1007A00008F09AC08A2D8C1B833008F493C0C430A3
:1007B00008F0C5C0413395E759076105710508F494
:1007C0000CC10AE010E020E030E0CA3F08F4D2C0DB
:1007D0008A019B010A50110921093109AC2EC0E0A0
:1007E00080916000811103C0882009F498CFF894AB
:1007F0008091650090916600A0916700B0916800BB
:10080000BA2FA92F982F8827789488248394B81416
:1008100029F1481759076A077B07B8F0CF0195956A
:1008200087959595879595958795959587959E2F0D
:100830009295907F8EBD9BBD10926000B09971CF54
:10084000B29993CFD0E0812CA1CF90E180E0E1E09C
:10085000F0E0B12CEFCFD1E0812C98CF0817190729
:100860002A073B07E0F1EFEFFFE0D3CF40916100B3
:100870005091620060916300709164004C195D09B1
:100880006E097F09C0906100D0906200E090630023
:10089000F090640010926100109262001092630068
:1008A0001092640093E09A1500F1413385E75807F0
:1008B0006105710508F487C00AE010E020E030E02F
:1008C00089EF8A1570F58A019B010A5011092109E7
:1008D000310949CFC0E084CF8C2F8A1965CFE1E080
:1008E000F0E06894BB24B1F894CF9DE09A1508F429
:1008F0005CC08A019B01A5E0369527951795079561
:10090000AA95D1F7413385E758076105710508F4C9
:100910002ACF0A3011052105310570F289EF8A15B9
:1009200090F2DB01CA010A97A109B109801791076A
:10093000A207B30708F017CF8C019D0114CFCE306A
:1009400038F58A019B0195E036952795179507950F
:100950009A95D1F7413395E759076105710508F478
:100960003DCF0A3011052105310508F42ACFCA3FD1
:1009700008F02ECFDB01CA010A97A109B10980173F
:100980009107A207B30708F029CF8C019D0126CF5C
:10099000C83108F047C08A019B0184E0369527954D
:1009A000179507958A95D1F7D5CF97E1892E8A14A7
:1009B000F0F08A019B0184E03695279517950795FD
:1009C0008A95D1F79FCF8A019B01B6E0369527958E
:1009D00017950795BA95D1F7C6CE8A019B01A6E077
:1009E0003695279517950795AA95D1F7F7CE81E209
:1009F0008A1590F18A019B01A5E0369527951795F8
:100A00000795AA95D1F7DB01CA01689413F8B6954A
:100A1000A795979587951694D1F7080F191F2A1F48
:100A20003B1F70CFC23228F58A019B0195E03695B5
:100A30002795179507959A95D1F7DB01CA01689418
:100A400013F8B695A795979587951694D1F7080F43
:100A5000191F2A1F3B1F7ECF9BE29A15B0F08A0117
:100A60009B0193E036952795179507959A95D1F7B1
:100A700049CFCC3230F58A019B0183E0369527952A
:100A8000179507958A95D1F765CF85E3882E8A1447
:100A900090F18A019B0185E036952795179507957A
:100AA0008A95D1F7DB01CA01689412F8B695A7952B
:100AB000979587951694D1F7080F191F2A1F3B1F8A
:100AC00021CFC63398F58A019B0185E0369527959D
:100AD000179507958A95D1F7DB01CA01689412F83A
:100AE000B695A795979587951694D1F7080F191F76
:100AF0002A1F3B1F2FCF8FE38A1598F18A019B0194
:100B000084E036952795179507958A95D1F7DB01EF
:100B1000CA01689412F8B695A7959795879516948B
:100B2000D1F7080F191F2A1F3B1FECCEC03408F065
:100B300042C08A019B0184E0369527951795079559
:100B40008A95D1F7DB01CA01689412F8B695A7958A
:100B5000979587951694D1F7080F191F2A1F3B1FE9
:100B6000F9CE99E49A1508F44EC08A019B01A4E0DD
:100B70003695279517950795AA95D1F7DB01CA01F8
:100B8000689412F8B695A795979587951694D1F71E
:100B9000080F191F2A1F3B1FDB01CA01689414F8B4
:100BA000B695A795979587951694D1F7080F191FB5
:100BB0002A1F3B1FA7CECA34A8F58A019B0194E0E7
:100BC00036952795179507959A95D1F7DB01CA01B8
:100BD000689412F8B695A795979587951694D1F7CE
:100BE000080F191F2A1F3B1FDB01CA01689414F864
:100BF000B695A795979587951694D1F7080F191F65
:100C00002A1F3B1FA7CE94E5892E8A14C0F08A01C3
:100C10009B01369527951795079536952795179536
:100C2000079570CEC53530F58A019B01369527951D
:100C30001795079536952795179507958BCE8DE5D2
:100C40008A1590F18A019B0184E0369527951795C6
:100C500007958A95D1F7DB01CA01B695A7959795B7
:100C60008795B695A79597958795080F191F2A1F01
:100C70003B1F48CECE3598F58A019B0184E036951E
:100C80002795179507958A95D1F7DB01CA01B69587
:100C9000A79597958795B695A79597958795080FEA
:100CA000191F2A1F3B1F56CE97E69A1598F18A0105
:100CB0009B0193E036952795179507959A95D1F75F
:100CC000DB01CA01B695A79597958795B695A79527
:100CD00097958795080F191F2A1F3B1F13CEC836FB
:100CE00008F043C08A019B0183E03695279517954C
:100CF00007958A95D1F7DB01CA01B695A795979517
:100D00008795B695A79597958795080F191F2A1F60
:100D10003B1F20CE81E7882E8A1408F44EC08A013A
:100D20009B0193E036952795179507959A95D1F7EE
:100D3000DB01CA01B695A79597958795B695A795B6
:100D400097958795080F191F2A1F3B1FDB01CA01C2
:100D5000689413F8B695A795979587951694D1F74B
:100D6000080F191F2A1F3B1FCDCDC23780F58A01FE
:100D70009B0193E036952795179507959A95D1F79E
:100D8000DB01CA01B695A79597958795B695A79566
:100D900097958795080F191F2A1F3B1FDB01CA0172
:100DA000689413F8B695A795979587951694D1F7FB
:100DB000080F191F2A1F3B1FCDCD8BE88A1580F025
:100DC0008A019B0136952795179507959BCDCC38C1
:100DD000F0F48A019B013695279517950795BACDB2
:100DE00095E99A1550F18A019B0195E03695279572
:100DF000179507959A95D1F7DB01CA01B695A79586
:100E000097958795080F191F2A1F3B1F7BCDC63961
:100E100060F58A019B0185E0369527951795079522
:100E20008A95D1F7DB01CA01B695A7959795879565
:100E3000080F191F2A1F3B1F8DCD8FE9882E8A149A
:100E400050F18A019B0194E03695279517950795F7
:100E50009A95D1F7DB01CA01B695A7959795879525
:100E6000080F191F2A1F3B1F4DCDC03AD0F58A012C
:100E70009B0194E036952795179507959A95D1F79C
:100E8000DB01CA01B695A79597958795080F191F9D
:100E90002A1F3B1F5FCD89EA8A1508F446C08A01E4
:100EA0009B0184E036952795179507958A95D1F78C
:100EB000DB01CA01B695A79597958795080F191F6D
:100EC0002A1F3B1FDB01CA01689414F8B695A79549
:100ED000979587951694D1F7080F191F2A1F3B1F66
:100EE00011CDCA3AC8F58A019B0184E03695279551
:100EF000179507958A95D1F7DB01CA01B695A79595
:100F000097958795080F191F2A1F3B1FDB01CA0100
:100F1000689414F8B695A795979587951694D1F788
:100F2000080F191F2A1F3B1F15CD93EB9A1550F17F
:100F30008A019B01A3E03695279517950795AA95F9
:100F4000D1F7DB01CA01B695A79597958795080F4C
:100F5000191F2A1F3B1FD6CCC43B10F58A019B01E9
:100F600093E036952795179507959A95D1F7DB016C
:100F7000CA01B695A79597958795080F191F2A1F3F
:100F80003B1FE8CC9DEB892E8A14B0F08A019B01AF
:100F900083E036952795179507958A95D1F788CFE1
:100FA000CE3B80F58A019B0183E036952795179506
:100FB00007958A95D1F7A0CF87EC8A1508F447C02A
:100FC0008A019B0183E036952795179507958A95A9
:100FD000D1F7DB01CA01B695A79597958795080FBC
:100FE000191F2A1F3B1FDB01CA01689413F8B6952D
:100FF000A795979587951694D1F7080F191F2A1F63
:101000003B1F80CCC83C08F056C08A019B0183E09E
:1010100036952795179507958A95D1F7DB01CA0173
:10102000B695A79597958795080F191F2A1F3B1FFF
:10103000DB01CA01689413F8B695A7959795879533
:101040001694D1F7080F191F2A1F3B1F83CC91ED6F
:101050009A1508F463C08A019B0193E036952795A1
:10106000179507959A95D1F7DB01CA01B695A79513
:1010700097958795080F191F2A1F3B1FDB01CA018F
:10108000689413F8B695A795979587951694D1F718
:10109000080F191F2A1F3B1FDB01CA01689414F8AF
:1010A000B695A795979587951694D1F7080F191FB0
:1010B0002A1F3B1F27CCC23D08F049C08A019B0173
:1010C00083E036952795179507958A95D1F7DB012B
:1010D000CA01B695A79597958795080F191F2A1FDE
:1010E0003B1FDB01CA01689413F8B695A795979545
:1010F00087951694D1F7080F191F2A1F3B1FDB0194
:10110000CA01689414F8B695A79597958795169493
:10111000D1F7080F191F2A1F3B1F1CCC8BED882EFF
:101120008A1460F18A019B013695279517950795DA
:101130003695279517950795DB01CA01B695A795B2
:1011400097958795080F191F2A1F3B1FDBCBCC3DB6
:1011500018F58A019B0136952795179507953695C1
:10116000279517950795DB01CA01B695A795979521
:101170008795080F191F2A1F3B1FECCB85EE8A1598
:10118000C0F08A019B0136952795179507953695EE
:101190002795179507951DCFC63E90F58A019B01AF
:1011A00036952795179507953695279517950795A1
:1011B00035CF9FEE9A1508F449C08A019B013695F8
:1011C0002795179507953695279517950795DB0170
:1011D000CA01B695A79597958795080F191F2A1FDD
:1011E0003B1FDB01CA01689412F8B695A795979545
:1011F00087951694D1F7080F191F2A1F3B1F82CB22
:10120000C03F08F059C08A019B0136952795179574
:1012100007953695279517950795DB01CA01B69571
:10122000A79597958795080F191F2A1F3B1FDB016C
:10123000CA01689412F8B695A79597958795169464
:10124000D1F7080F191F2A1F3B1F84CB89EF882E67
:101250008A1408F465C08A019B0136952795179575
:1012600007953695279517950795DB01CA01B69521
:10127000A79597958795080F191F2A1F3B1FDB011C
:10128000CA01689412F8B695A79597958795169414
:10129000D1F7080F191F2A1F3B1FDB01CA016894F1
:1012A00013F8B695A795979587951694D1F7080FDB
:1012B000191F2A1F3B1F26CBCA3F08F041C08A01D5
:1012C0009B01369527951795079536952795179580
:1012D0000795DB01CA01B695A79597958795080FE5
:1012E000191F2A1F3B1FDB01CA01689412F8B6952B
:1012F000A795979587951694D1F7080F191F2A1F60
:101300003B1FDB01CA01689413F8B695A795979522
:1013100087951694D1F7080F191F2A1F3B1F1ACB68
:10132000DB01CA0115E0B695A795979587951A95A3
:10133000D1F78A019B01081B190B2A0B3B0BE2CA50
:10134000DB01CA0125E0B695A795979587952A9563
:10135000D1F78A019B01081B190B2A0B3B0BFACA18
:04136000F894FFCF2F
:00000001FF
