:1000000012C01FC01EC01DC01CC01BC01BC019C019
:1000100018C017C016C015C014C013C012C011C03C
:1000200010C00FC00EC011241FBECFEDCDBF20E009
:10003000A0E6B0E001C01D92A038B207E1F7ACD055
:10004000BCC3DECF1F920F920FB60F9211248F9375
:100050009F93AF93BF938091640090916500A091AE
:100060006600B09167000196A11DB11D80936400E8
:1000700090936500A0936600B0936700809178002C
:1000800090917900A0917A00B0917B000196A11D1A
:10009000B11D8093780090937900A0937A00B0937B
:1000A0007B008091740090917500A0917600B091D2
:1000B00077000196A11DB11D809374009093750087
:1000C000A0937600B09377008091680090916900CA
:1000D000A0916A00B0916B000196A11DB11D8093A3
:1000E000680090936900A0936A00B0936B008091C0
:1000F000700090917100A0917200B0917300019610
:10010000A11DB11D8093700090937100A0937200A7
:10011000B09373008091600090916100A0916200A3
:10012000B09163000196A11DB11D80936000909372
:100130006100A0936200B093630080916C00909185
:100140006D00A0916E00B0916F000196A11DB11DD0
:1001500080936C0090936D00A0936E00B0936F003D
:1001600080917C0090917D00A0917E00B0917F00F5
:100170000196A11DB11D80937C0090937D00A093FA
:100180007E00B0937F00BF91AF919F918F910F90B0
:100190000FBE0F901F901895CF93DF93CDB7DD273B
:1001A000CA50CDBF10BE82E083BF12BE89B7826045
:1001B00089BF8898909ABF98C79A8D98959A8E987B
:1001C000969A8A98BD988B98B998899ABE9A8C9A73
:1001D000B89AD198D99AD098D89ABC98C49ABB9812
:1001E000C39A9198C6989498C0982FEF80E792E0B0
:1001F000215080409040E1F700C00000312C1C826B
:1002000040E85AE166E070E0212C1B82A0E84A2E0B
:10021000AAE15A2EA6E06A2E712C1E82198280E86D
:100220009AE1A6E0B0E0E2E012E032E022E01D82D6
:10023000F0E000E8C02E0AE1D02E06E0E02EF12C1E
:100240002F8338871987EA87809B8AC0829B02C0E8
:10025000C99B86C0FF2311F09198F0E02F812230D6
:1002600009F4AEC0829BE3C0C99BE1C0ED81E111FE
:1002700089C2919A1F8221E02D83B799E0C0E9815C
:10028000E11109C22885213009F482C2211102C07E
:1002900091E09887C69AF8948091780090917900BF
:1002A000A0917A00B0917B0022B7BA2FA92F982F86
:1002B0008827822B109278001092790010927A0091
:1002C00010927B0010926000109261001092620008
:1002D000109263007894E1E0E9832885223009F4E4
:1002E000BCC0B59BF1C0C89BEFC0EE81E1114DC20F
:1002F000C69A21E02E831886859BEEC0839B02C0A0
:10030000B49BEAC0EB81EE2311F094981B822985FF
:10031000223009F413C1839B48C1B49B46C121100C
:100320002BC2949A222423941986869B45C1B19BA3
:1003300002C0B39B41C1EC81EE2311F0C0981C8236
:100340002A85223009F46AC1B19B9FC1B39B9DC12C
:10035000311015C2C09A332433941A86809976CF0F
:10036000F111B3C1EF81E13009F41BC2E11102C008
:1003700021E02F83919AF894C0906400D09065009A
:10038000E0906600F090670022B7FE2CED2CDC2C8C
:10039000CC24C22A1092640010926500109266006C
:1003A000109267001092700010927100109272000B
:1003B000109273007894F1E02F81223009F052CF2F
:1003C000F8940091700010917100209172003091AA
:1003D0007300B2B6322F212F102F00270B297894EB
:1003E00046015701B694A794979487940815190568
:1003F0002A053B0508F09198C016D106E206F306DF
:1004000008F030CF0C191D092E093F09012F122FBA
:10041000232F3327F89400937000109371002093DA
:100420007200309373007894919A82991DCFED8178
:10043000EE2309F422CF91981D82B79B20CFB59B64
:1004400002C0C89B1CCFE981EE2309F446CFC698B1
:1004500019822885223009F044CFF8940091600079
:10046000109161002091620030916300B2B6322F8A
:10047000212F102F00270B2978944C015D01B69491
:10048000A79497948794081519052A053B0508F049
:10049000C69880179107A207B30708F022CF081B60
:1004A000190B2A0B3B0B012F122F232F3327F89404
:1004B000009360001093610020936200309363000A
:1004C0007894C69AB5990FCFEE81EE2309F414CF34
:1004D000C6981E82859912CFEB81E1110FC1298543
:1004E000213009F45BC1211102C021E02987949ACF
:1004F000F894409074005090750060907600709071
:10050000770022B7762C652C542C4424422A109272
:10051000740010927500109276001092770010927D
:100520006C0010926D0010926E0010926F00789423
:10053000E1E0EB832985223009F0EDCEF8940091BB
:100540006C0010916D0020916E0030916F00B2B67A
:10055000322F212F102F00270B29789453014201AD
:10056000B694A79497948794081519052A053B0516
:1005700008F09498401651066206730608F0CBCE38
:100580000419150926093709012F122F232F3327A4
:10059000F89400936C0010936D0020936E003093DC
:1005A0006F007894949A8399B8CE222009F4BDCE36
:1005B0009498212C8699BBCEEC81E111B9C02A8593
:1005C000213009F4F1C0211102C021E02A87C09A2C
:1005D000F894409168005091690060916A007091B0
:1005E0006B0022B7762F652F542F4427422B109291
:1005F00068001092690010926A0010926B001092CD
:100600007C0010927D0010927E0010927F00789402
:10061000E1E0EC832A85223009F096CEF89400912F
:100620007C0010917D0020917E0030917F00B2B659
:10063000322F212F102F00270B2978944A015B01BC
:10064000B694A79497948794081519052A053B0535
:1006500008F0C098401751076207730708F074CE7E
:10066000041B150B260B370B012F122F232F3327BB
:10067000F89400937C0010937D0020937E003093CB
:100680007F007894C09AB19961CE332009F4DCCD13
:10069000C098312CD9CDB7997EC0009178001091C7
:1006A000790020917A0030917B0007311E402105AE
:1006B000310508F45EC028852111C69881E0898340
:1006C00080E090E0DC0118860CCE80994AC0009151
:1006D0006400109165002091660030916700073139
:1006E0001E402105310508F43CC0FF81F1119198AD
:1006F0001F82F1E0C12CD12C7601B4CD859936C092
:10070000009174001091750020917600309177006F
:1007100007311E402105310508F44CC029852111FF
:100720009498E1E0EB83412C512C32011986F3CDF2
:10073000869919C0009168001091690020916A00A3
:1007400030916B0007311E402105310580F12A856B
:100750002111C09821E02C8340E050E0BA011A86B4
:10076000F3CDF1E07BCD21E02C83EACD21E02B839A
:10077000CECDE1E0E983B1CD22242394D6CD33243C
:10078000339462CD21E02D8378CD21E02E83B4CD4A
:1007900082E088877FCD21E029839FCDE2E0E98751
:1007A000A6CEF2E0FF83E6CDE2E0EA8710CFE1E0FB
:0E07B000EC83C6CDE1E0EB83AACDF894FFCF39
:00000001FF
