:1000000012C01FC01EC01DC01CC01BC01BC019C019
:1000100018C017C016C015C014C013C012C011C03C
:1000200010C00FC00EC011241FBECFEDCDBF10E019
:10003000A0E6B0E001C01D92A038B107E1F7ACD056
:10004000DAC3DECF1F920F920FB60F9211248F9357
:100050009F93AF93BF938091640090916500A091AE
:100060006600B09167000196A11DB11D80936400E8
:1000700090936500A0936600B0936700809178002C
:1000800090917900A0917A00B0917B000196A11D1A
:10009000B11D8093780090937900A0937A00B0937B
:1000A0007B008091740090917500A0917600B091D2
:1000B00077000196A11DB11D809374009093750087
:1000C000A0937600B09377008091680090916900CA
:1000D000A0916A00B0916B000196A11DB11D8093A3
:1000E000680090936900A0936A00B0936B008091C0
:1000F000700090917100A0917200B0917300019610
:10010000A11DB11D8093700090937100A0937200A7
:10011000B09373008091600090916100A0916200A3
:10012000B09163000196A11DB11D80936000909372
:100130006100A0936200B093630080916C00909185
:100140006D00A0916E00B0916F000196A11DB11DD0
:1001500080936C0090936D00A0936E00B0936F003D
:1001600080917C0090917D00A0917E00B0917F00F5
:100170000196A11DB11D80937C0090937D00A093FA
:100180007E00B0937F00BF91AF919F918F910F90B0
:100190000FBE0F901F9018952F923F924F925F9233
:1001A0006F927F928F929F92AF92BF92CF92DF9287
:1001B000EF92FF920F931F93DF93CF93CDB7DEB7EC
:1001C00028970FB6F894DEBF0FBECDBF10BE82E0F9
:1001D00083BF12BE89B7826089BF8898909ABF9802
:1001E000C79A8D98959A8E98969A8A98BD988B986A
:1001F000B998899ABE9A8C9AB89AD198D99AD09877
:10020000D89ABC98C49ABB98C39A9198C698949867
:10021000C09822243324210118861F821E8260E0A8
:100220001D821C82EE24FF24870170E01B8266245D
:1002300077244301F0E01A82AA24BB246501E0E0A0
:100240001982809B8FC0829B02C0C99B8BC028856E
:10025000222311F091981886AE81A23009F4BCC017
:10026000829BF7C0C99BF5C0BF81BB2321F4919A43
:1002700021E02F831E82B799F4C0772309F03BC297
:10028000613009F4A5C2662309F461E0C69AF894C6
:100290008091780090917900A0917A00B0917B00D4
:1002A00022B7E22EFF2400E010E0BA2FA92F982FEA
:1002B0008827E82AF92A0A2B1B2B10927800109223
:1002C000790010927A0010927B00109260001092D8
:1002D00061001092620010926300789471E06230C5
:1002E00009F4CBC0B59B06C1C89B04C18B81882390
:1002F00021F4C69A60E0A1E0AB83859B03C1839B98
:1003000002C0B49BFFC0FF2311F09498F0E08D81F0
:10031000823009F42FC1839B6AC1B49B68C1AA8152
:10032000AA2321F4949A1D82B1E0BA83869B67C107
:10033000B19B02C0B39B63C1EE2311F0C098E0E013
:10034000AC81A23009F493C1B19BCEC1B39BCCC1A7
:10035000B981BB2309F075CFC09A1C8221E02983A3
:10036000809971CF2885222309F011C28E818130B6
:1003700009F436C2882311F421E02E83919AF8946F
:100380008091640090916500A0916600B091670033
:1003900022B7222E332444245524BA2FA92F982F74
:1003A0008827282A392A4A2A5B2A10926400109248
:1003B0006500109266001092670010927000109213
:1003C00071001092720010927300789481E0888717
:1003D000AE81A23009F044CFF894809170009091E2
:1003E0007100A0917200B091730022B730E040E03C
:1003F00050E0BA2FA92F982F8827282B392B4A2B6A
:100400005B2B7894D201C101B695A79597958795F6
:10041000281739074A075B0708F091982216330618
:100420004406550608F01CCF221933094409550922
:10043000BB27A52F942F832FF8948093700090935F
:100440007100A0937200B09373007894919A82998E
:1004500009CF8F81882309F40ECF91981F82B79B13
:100460000CCFB59B02C0C89B08CF772309F437CFC8
:10047000C69870E0623009F035CFF8948091600042
:1004800090916100A0916200B091630022B730E0CA
:1004900040E050E0BA2FA92F982F8827282B392B1E
:1004A0004A2B5B2B7894D801C701B695A7959795F1
:1004B0008795281739074A075B0708F0C698E216A0
:1004C000F3060407150708F00DCF2E193F09400B5E
:1004D000510BBB27A52F942F832FF8948093600096
:1004E00090936100A0936200B09363007894C69AE1
:1004F000B599FACEBB81BB2309F4FFCEC6981B8207
:100500008599FDCEFF2309F029C1FD81F13009F461
:1005100061C1FF2311F4A1E0AD83949AF894809116
:10052000740090917500A0917600B091770022B789
:10053000622E772488249924BA2FA92F982F8827F0
:10054000682A792A8A2A9B2A1092740010927500D0
:10055000109276001092770010926C0010926D004D
:1005600010926E0010926F007894F1E08D818230CD
:1005700009F0D1CEF89480916C0090916D00A0911B
:100580006E00B0916F0022B730E040E050E0BA2F2B
:10059000A92F982F8827282B392B4A2B5B2B78944F
:1005A000D401C301B695A795979587952817390764
:1005B0004A075B0708F0949862167306840695064E
:1005C00008F0A9CE2619370948095909BB27A52FD4
:1005D000942F832FF89480936C0090936D00A093D8
:1005E0006E00B0936F007894949A839996CE2A8186
:1005F000222309F49BCE94981A82869999CEEE23F1
:1006000009F092C08C81813009F4E7C0882311F48D
:10061000E1E0EC83C09AF8948091680090916900C1
:10062000A0916A00B0916B0022B7A22EBB24CC240B
:10063000DD24BA2FA92F982F8827A82AB92ACA2AD9
:10064000DB2A109268001092690010926A001092E2
:100650006B0010927C0010927D0010927E00109230
:100660007F007894E1E0AC81A23009F06DCEF8947F
:1006700080917C0090917D00A0917E00B0917F00E0
:1006800022B730E040E050E0BA2FA92F982F8827FA
:10069000282B392B4A2B5B2B7894D601C501B695B4
:1006A000A79597958795281739074A075B0708F09C
:1006B000C098A216B306C406D50608F045CE2A197E
:1006C0003B094C095D09BB27A52F942F832FF89474
:1006D00080937C0090937D00A0937E00B0937F0078
:1006E0007894C09AB19932CE8981882309F4A9CD32
:1006F000C0981982A6CDB79962C080917800909178
:100700007900A0917A00B0917B0087519E40A04073
:10071000B04008F454C0662311F0C69860E0EE249F
:10072000FF24870171E0DECD869950C0809168007A
:1007300090916900A0916A00B0916B0087519E4032
:10074000A040B04008F442C08C81882311F0C098CA
:100750001C82AA24BB246501E1E0F6CD859931C055
:100760008091740090917500A0917600B09177000F
:1007700087519E40A040B04020F12D81222311F0EE
:1007800094981D82662477244301F1E0C4CD8099BA
:100790001AC08091640090916500A0916600B091AC
:1007A000670087519E40A040B04068F08E8188234A
:1007B000D1F4222433242101A1E0A88751CD71E096
:1007C0008ECDF1E0A4CD81E0888746CDE1E0B8CDC3
:1007D00062E05CCD22E02D83A0CEA2E0AC831ACFF4
:1007E000A2E0AE83CBCD9198222433242101B1E045
:0A07F000B8871E8235CDF894FFCFC4
:00000001FF
