:100000000EC01DC098C01BC01AC01AC018C017C0AF
:1000100016C015C014C013C012C011C010C01124E6
:100020001FBECFE5D2E0DEBFCDBF20E0A0E6B0E04E
:1000300001C01D92AD36B207E1F7E2D00EC5E0CFA8
:100040001F920F920FB60F9211248F939F93AF932D
:10005000BF938091690090916A00A0916B00B0916C
:100060006C000196A11DB11D8093690090936A00F8
:10007000A0936B00B0936C00809165009091660036
:10008000A0916700B09168000196A11DB11D8093F9
:10009000650090936600A0936700B093680080911C
:1000A00060008F5F80936000BF91AF919F918F91AF
:1000B0000F900FBE0F901F901895F89480916900D3
:1000C00090916A00A0916B00B0916C0022B7789477
:1000D0006627782F892F9A2F622B08951ABC82E009
:1000E00083BF12BE89B7826089BF7894089582E089
:1000F00087BD07B400FEFDCF87B5846087BD81E66C
:1001000080BFB99A8CB580668CBDBC9A1EBC1BBCE6
:100110008FEF8DBD0895B898C098BA98C298089589
:10012000BB98C39880E886B983E287B986B18760B7
:1001300086B9369A08951F920F920FB60F92112426
:100140002F938F939F93AF93BF93B09B16C08091D3
:10015000690090916A00A0916B00B0916C0022B789
:10016000BA2FA92F982F8827822B80936100909314
:100170006200A0936300B0936400BF91AF919F9120
:100180008F912F910F900FBE0F901F90189581E0C7
:1001900085BB80E28BBF0895DF92EF92FF920F93B1
:1001A0001F932F933F934F935F931127222733275A
:1001B000442700E8FF24EE24DD2450E2DD0CEE1C91
:1001C000FF1C001F111F221F331F441F1617270774
:1001D0003807490728F0161B270B380B490BD39417
:1001E0005A9561F7902F8F2D7E2D6D2D5F914F9138
:1001F0003F912F911F910F91FF90EF90DF90089505
:10020000CF93DF93CDB7DEB76C970FB6F894DEBF10
:100210000FBECDBF1ABC82E083BF12BE89B7826019
:1002200089BF7894B898C098BA98C29879DF81E06D
:1002300085BB80E28BBF5BDF8FE19EE40197F1F726
:1002400000C000001E8AC12CD12C7601812C912C7B
:1002500054011F8A188E198E1A8E1A861B861C86C8
:100260001D86312C19820FE71986212C412C512C27
:1002700032011E861F86188A198A1A8A1B8A1C8ACE
:100280001D8A11E090E09C8F3B8EB09B2AC080912C
:10029000610090916200A0916300B0916400892B8D
:1002A0008A2B8B2BF1F02A893B894C895D8921159A
:1002B00031054105510509F013C2F8948091690098
:1002C00090916A00A0916B00B0916C0022B7789475
:1002D0004427582F692F7A2F422B4A8B5B8B6C8BCC
:1002E0007D8BB29BEEC0398531119DC1F894809110
:1002F000650090916600A0916700B0916800442469
:10030000582E692E7A2E7894D301C2018053984FCB
:10031000AF4FBF4F4E855F856889798984179507F0
:10032000A607B70708F0CCC151E05987212C332428
:1003300033949B8D9F5F9B8F993C08F44EC0349BF8
:100340004CC0349AA5B1A983B3E2B7B9369AA017C5
:1003500008F049C2802F8A1B833008F43DC2E9812E
:10036000E83008F450C2EF3F09F4C4C289818B57CA
:10037000893008F09BC28E849F84A888B988B6947F
:10038000A794979487946E857F8588899989B6E02C
:100390009695879577956795BA95D1F72E853F8580
:1003A00048895989281939094A095B0949015A01BB
:1003B000F3DE6F8B788F898F9A8FC501B40135E09A
:1003C00096958795779567953A95D1F7E5DE4B0138
:1003D0005C0109813AEF3E8B1B8EF8948091650099
:1003E00090916600A0916700B091680078942220F7
:1003F00009F46BC0BA2FA92F982F882748165906E1
:100400006A067B0608F061C05E89511102C0332480
:100410003394111159C080916000212C083008F0EC
:100420005EC00C8F011102C061E06C8F21E030E0F2
:1004300040E050E02A873B874C875D87C12CD12C58
:1004400076012091600030E040E050E06F89788DC7
:10045000898D9A8D82D229833A834B835C836D8305
:100460007E838F83988729813A814B815C81C20E7C
:10047000D31EE41EF51E97014FEFE4164FE0F4067D
:100480000CF42CC1C12CD12CEE24EA947FE0F72E81
:100490002FEF3FE012E04C8D411190C0C9019595BE
:1004A00087959595879595958795959587952295A7
:1004B000207F8EBD2BBD10926000B099E8CEB2991E
:1004C00012CF1986312C35CF212C809160008111FB
:1004D00008C0332009F4D9CE083008F4A2CF1C8E0E
:1004E000A5CF31109BCF8A859B85AC85BD850196B4
:1004F000A11DB11D8A879B87AC87BD87113009F488
:10050000A0CF123009F088C08C149D04AE04BF0443
:1005100008F52091600030E040E050E0C501B401F2
:100520001CD229833A834B835C836D837E838F83C4
:10053000988769817A818B819C81C61AD70AE80ADB
:10054000F90AC701AA27BB279C0101978F3F9F404B
:1005500008F4A1CFB29904C08E89882309F45CC045
:10056000F8948091650090916600A0916700B09129
:1005700068007894E7E0880F991FAA1FBB1FEA95CF
:10058000D1F72E853F854889598982179307A4079B
:10059000B50708F041C0083008F04BC10C8F0111BD
:1005A00054C1C12CD12C76011A861B861C861D864F
:1005B00011E020EF8FEF71E07C8F7BCF413009F4A9
:1005C00015C1442737FD4095542FCA01B901C3D145
:1005D00029833A834B835C836D837E838F839887E3
:1005E00089819A81AB81BC815CE0B595A79597958F
:1005F00087955A95D1F7BC018C8D8630D0F0CB0110
:1006000095958795959587959595879595958795D2
:10061000262F2295207F4DCFC12CD12C760120E0B2
:1006200030E010E038CF111154C061E06987312CFF
:1006300080CE9B01442737FD4095542FCA01B90154
:100640008AD129833A834B835C836D837E838F8336
:10065000988749815A816B817C813CE075956795CB
:10066000579547953A95D1F79C8D943008F066C11F
:100670009A01442737FD4095542FCA01B9016BD127
:1006800029833A834B835C836D837E838F83988732
:1006900029813A814B815C818CE05595479537954E
:1006A00027958A95D1F7B9017595679575956795E1
:1006B0007595679575956795862F2295207FF9CE5C
:1006C00071E07987212C412C512C32013324339451
:1006D00030CE81E08987212C312C2BCE11E0DBCE6E
:1006E000609161007091620080916300909164005C
:1006F000621B730B840B950B6E877F87888B998B9E
:1007000040916100509162006091630070916400BB
:100710004A8B5B8B6C8B7D8BF894109265001092EA
:10072000660010926700109268007894D301C201AD
:100730008053984FAF4FBF4F2E853F8548895989C9
:1007400082179307A407B50718F0412C512C3201EA
:100750001092610010926200109263001092640087
:10076000083008F45AC00F3F09F4D6C085E8800F5E
:10077000893008F078C08E849F84A888B988B694A0
:10078000A794979487946E857F8588899989B6E028
:100790009695879577956795BA95D1F72E853F857C
:1007A00048895989281939094A095B0949015A01B7
:1007B000F3DC6F8B788F898F9A8FC501B40135E098
:1007C00096958795779567953A95D1F7E5DC4B0136
:1007D0005C012224239485CD4E89442341F141506C
:1007E0004E8B1B8EFACD8981801BB6CD6A857B85A9
:1007F0008C859D85623271058105910508F4D9CEFD
:1008000020E180E056CE62E070E080E090E040E4DD
:10081000842E912CA12CB12CC1CD62E070E080E03F
:1008200090E040E4842E912CA12CB12CB7CF1B8EEC
:10083000D4CD20E080E0C12CD12C76011A861B8615
:100840001C861D861C8E11E034CE013009F4A9CE21
:1008500060E070E0C12CD12C76011A861B861C86C4
:100860001D8611E0C9CE0B30C0F24E855F856889C8
:100870007989BB27A72F962F852F202F30E02A506C
:100880003109442737FD4095542FBC01CD0165D077
:10089000822E932EA42EB52EC501B401F5E09695B7
:1008A000879577956795FA95D1F778CF29812B3081
:1008B00008F4A9CF4E855F8568897989BB27A72F62
:1008C000962F852F30E02A503109442737FD409577
:1008D000542FBC01CD0141D0822E932EA42EB52ED3
:1008E000C501B401F5E09695879577956795FA95DA
:1008F000D1F754CD8E849F84A888B988F1E09F1ADF
:10090000A108B108C501B40105E0969587957795D2
:1009100067950A95D1F742CD8E849F84A888B988BF
:1009200031E0931AA108B108C501B40125E09695FC
:100930008795779567952A95D1F730CFCA01959518
:100940008795959587959595879595958795242F66
:100950002295207FAECD68940013E894A0E0B0E02B
:10096000E3EBF4E01DC0EFEFE7F959016A015E2304
:10097000550FEE08FE2C87019B01AC019E23990FB9
:10098000660B762FCB013BD0CDB7DEB7EAE024C0B3
:100990002F923F924F925F926F927F928F929F928F
:1009A000AF92BF92CF92DF92EF92FF920F931F937D
:1009B000CF93DF93CDB7DEB7CA1BDB0B0FB6F8942E
:1009C000DEBF0FBECDBF09942A88398848885F846E
:1009D0006E847D848C849B84AA84B984C884DF80DF
:1009E000EE80FD800C811B81AA81B981CE0FD11DC3
:1009F0000FB6F894DEBF0FBECDBFED010895DF93B3
:100A0000CF939F92A0E49A2E0024D001E001F00140
:100A100016950795F794E794D794C794B794A7943D
:100A200048F41068A20FB31FC41FD51FE61FF71F9D
:100A3000081E191E220F331F441F551F661F771FE4
:100A4000881F991F9A9421F79D01AE01BF01C00133
:0E0A500011249F90CF91DF910895F894FFCF6D
:00000001FF
